:020000040000FA
:1000000000308A00B0280000FF00030E8301A10029
:100010000A08A0008A010408A2007708A300780853
:10002000A4007908A5007A08A6007B08A70083131E
:1000300083128B1E1D280B193028220884002308E8
:10004000F7002408F8002508F9002608FA00270818
:10005000FB0020088A00210E8300FF0E7F0E09009E
:100060008A110A123328A908031D3A282808983C47
:1000700003184328AA08031D40280130AA0041287C
:10008000AA01A901A801A80A0319A90A0B118A113A
:100090000A121D283308F8013202031852283208C8
:1000A000F7005E28F7010830B400B20DF70D3308F1
:1000B00077020318F700F80DB40B55280034320806
:1000C000F63E0318A1280A3EA228831688013F3075
:1000D00083128800A12883168801063083128800C5
:1000E000A128831688015B3083128800A12883161B
:1000F00088014F3083128800A1288316880166305A
:1001000083128800A128831688016D30831288002D
:10011000A128831688017D3083128800A1288316C8
:100120008801073083128800A128831688017F3058
:1001300083128800A1288316880167308312880003
:10014000A12800340A108A100A11820765286B283A
:10015000712877287D28832889288F2895289B282F
:10016000840183131F308305813083169900A630E4
:10017000980090308312980083161F149F141F1547
:100180009F118312A801A901AA01FF30AB00AC01A5
:10019000AD01AE0130102A08B10083160108C03944
:1001A00006388100640083128B16C0308B048316DE
:1001B00086168312861AED2831082A020319ED28C3
:1001C0002A08B100AC08031930102C08633C03194D
:1001D0003014301CAC0A3018AC032C08B2000A30C2
:1001E000B3004A207708AD002C08B2000A30B300F3
:1001F0004A207808AE0007102B102B0883168700C2
:1002000083128714AB102B088316870083122D08E6
:10021000B2005F20831688018312880107142B1017
:100220002B088316870083128710AB102B088316C8
:10023000870083122E08B2005F2083168801831284
:100240008801831606168312061EAC01D7286300A8
:02400E00713F00
:00000001FF
;PIC16F877
;CRC=9404  CREATED="12-jul-16 10:33"
