:020000040000FA
:1000000000308A001B28000023308400831300087E
:10001000031918280130F800F701F70B0D28F80B29
:100020000C284A30F700F70B13281628800B0A28F3
:100030008A110A124928840183131F30830583160D
:100040001F149F141F159F1183122110A1108316D6
:100050008801831288010130A2008316861683125C
:10006000861E4D2883168801831222088800A11855
:100070003B280310A20DA11C3F280310A20C220B49
:100080004228A1102208803C0319A114C830A30003
:0E009000042883168801831288012D2863003E
:02400E00723FFF
:00000001FF
;PIC16F877
;CRC=C0F6  CREATED="08-jul-16 09:52"
