:020000040000FA
:1000000000308A00C7280000FF00030E8301A10012
:100010000A08A0008A010408A2007708A300780853
:10002000A4007908A5007A08A6007B08A70083131E
:1000300083128C308400801E1F288C1A38288C3044
:100040008400001C25280C183B2822088400230863
:10005000F7002408F8002508F9002608FA00270808
:10006000FB0020088A00210E8300FF0E7F0E09008E
:100070008A110A12A4288A110A123E282C08773AFB
:1000800003194928163A03196628123A03198328D6
:10009000A0282B0803195028013A03195B2865286A
:1000A0008316061183120615FE308F00C7308E00AE
:1000B0000130AB0065288316061183120611D0307B
:1000C0008F0064308E00AB016528A0282B0803192F
:1000D0006D28013A031978288228831606118312A5
:1000E0000615FC308F0056308E000130AB008228A0
:1000F0008316061183120611D2308F00D5308E0080
:10010000AB018228A0282B0803198A28013A031979
:1001100095289F288316061183120615F9308F0043
:10012000E5308E000130AB009F2883160611831244
:100130000611D5308F0046308E00AB019F28A028D5
:100140000C108A110A122528AA018C1EC3288C1EA5
:10015000A7281A08AA002A080C1EAC2899002A0809
:10016000773A0319BA28163A0319BD28123A031927
:10017000C028C3287730AC00C3286130AC00C32846
:100180007330AC00C3288C128A110A12252884010E
:1001900083131F308305813083169900A6309800A1
:1001A00090308312980083161F149F141F159F11FF
:1001B0008312A801A9012030AA00AB01AC000030D5
:1001C00083168600B5308312900083168C160C14AB
:0A01D000C03083128B04EB2863009B
:02400E00713F00
:00000001FF
;PIC16F877
;CRC=083D  CREATED="15-jul-16 13:15"
