:020000040000FA
:1000000000308A00EA2800000A108A100A118207CC
:100010004C3469346E34693461343A34253475347F
:1000200020342D3420342534753420342D342034BC
:10003000253475340A340D3400342430840083139D
:100040000008031930280630F800F701F70B2628BE
:10005000F80B25287B30F700F70B2C28800B232882
:1000600000342708F8012602031839282608F7006B
:100070004528F7010830A800A60DF70D27087702DC
:100080000318F700F80DA80B3C2800347808240862
:10009000A6006430A70031207708A400780830302B
:1000A000031D5928A51C6128A5196128251A20308F
:1000B0005C28A51125122514F80778080C1E5E2867
:1000C00099002408A6000A30A70031207708A40070
:1000D00078083030031D7228A5197728251C772849
:1000E000251A2030F80778080C1E74289900303043
:1000F000A40724080C1E7A28990000342830F80040
:100100001F08C73978049F000130A4001D201F1567
:100110001F1988281E08A2003030F8001F08C739B0
:1001200078049F000130A4001D201F151F19962878
:100130001E08A3003830F8001F08C73978049F0054
:100140000130A4001D201F151F19A4281E08A1009E
:100150006430A4001D20A40124080420A40AF70090
:1001600077080C1EB128990006302402031DAC2824
:100170002208A4001B30A500462020300C1EBE28FB
:1001800099002D300C1EC228990020300C1EC62864
:1001900099002308A4001B30A500462020300C1E27
:1001A000CF2899002D300C1ED328990020300C1E2A
:1001B000D72899002108A4001B30A50046200A304A
:1001C0000C1EE02899000D300C1EE42899008A11BD
:1001D0000A120929840183131F3083058130831695
:1001E0009900A630980090308312980083161F144F
:1001F0009F141F159F1183121F179F1783169F139C
:1002000083121F1483161F109F101F119F1183123A
:060210007E2808296300AE
:02400E00723FFF
:00000001FF
;PIC16F877
;CRC=33C2  CREATED="15-jul-16 09:12"
