:020000040000FA
:1000000001308A00B9290000FF00030E8301A1001E
:100010000A08A0008A010408A2007708A300780853
:10002000A4007908A5007A08A6007B08A70083131E
:1000300083128C308400001C1F280C1832282208E0
:1000400084002308F7002408F8002508F900260892
:10005000FA002708FB0020088A00210E8300FF0E0B
:100060007F0E09008A110A1235282D08773A0319E4
:100070004928073A03196E28113A03199328123AAE
:100080000319B828103A0319DD28193A031902296F
:1000900027292E0803195028013A03195F286D28D3
:1000A0008316861083128614831606118312061196
:1000B000F9308F00E5308E000130AE006D288316D8
:1000C0008610831286108316061183120615D5300A
:1000D0008F0046308E00AE016D2827292E080319A7
:1000E0007528013A031984289228831686108312F2
:1000F00086148316061183120611FC308F005630C9
:100100008E000130AE00922883168610831286106E
:100110008316061183120615D2308F00D5308E005B
:10012000AE01922827292E0803199A28013A0319AB
:10013000A928B72883168610831286148316061101
:1001400083120615FE308F00C7308E000130AE00DE
:10015000B728831686108312861083160611831221
:100160000611D0308F0064308E00AE01B7282729E9
:100170002E080319BF28013A0319CE28DC2883165C
:100180008610831286108316061183120611F8302A
:100190008F00AD308E000130AE00DC288316861053
:1001A000831286148316061183120615D6308F002B
:1001B0007E308E00AE01DC2827292E080319E428A2
:1001C000013A0319F3280129831686108312861039
:1001D0008316061183120611FB308F00BA308E0091
:1001E0000130AE000129831686108312861483160F
:1001F000061183120615D3308F0071308E00AE01C8
:10020000012927292E0803190929013A0319182958
:1002100026298316861083128610831606118312F0
:100220000611FC308F00F3308E000130AE0026291D
:100230008316861083128614831606118312061500
:10024000D2308F0038308E00AE01262927290C10BD
:100250008A110A121F283030840083130008031902
:100260003E290630F800F701F70B3429F80B332943
:100270007B30F700F70B3A29800B3129003410301E
:10028000F8001F08C73978049F000130B0002B2107
:100290001F151F1949291E08AC002C08643C0318BF
:1002A00054290130AC005529AC011830F8001F0862
:1002B000C73978049F000130B0002B211F151F198A
:1002C0005F291E08AB002B08643C03186A29013023
:1002D000AB006B29AB016430B0002B218A110A12EC
:1002E000E4292830F8001F08C73978049F0001303E
:1002F000B0002B211F151F197B291E08A9002908F2
:10030000963C031886290130A9008729A9013030BD
:10031000F8001F08C73978049F000130B0002B2176
:100320001F151F1991291E08AA002A08963C0318B8
:100330009C290130A8009D29AA013830F8001F0827
:10034000C73978049F000130B0002B211F151F19F9
:10035000A7291E08A8002808963C0318B2290130D6
:10036000A800B329A8016430B0002B218A110A1219
:10037000E529840183131F3083058130831699009A
:10038000A630980090308312980083161F149F1493
:100390001F159F1120308312AD00AE011F179F174C
:1003A00083169F1383121F1483161F109F101F1193
:1003B0009F1100308600B5308312900083160C1414
:1003C000C03083128B043F297129290BEC292A0B99
:1003D000EC29280BEC29F0292C0BF3292B0BF32902
:1003E0007730AD005D2AA908031DF929A808031973
:1003F000022AAA08031D0E2AA908031D0E2AA8080E
:10040000031D0E2A7330AD000230AF00FA30B00089
:100410002B21AF0B062A7030AD005D2AA908031D01
:10042000252A280B252A2A0B162A192AAA08031D71
:10043000252A6130AD000230AF00FA30B0002B2128
:10044000AF0B1D2A7030AD005D2AA808031D3C2AA1
:10045000290B3C2A2A0B2D2A302AAA08031D3C2AE4
:100460006430AD000230AF00FA30B0002B21AF0B8A
:10047000342A7030AD005D2A2C0B4D2AAB08031DC9
:100480004D2A6330AD000230AF00FA30B0002B21AE
:10049000AF0B452A7030AD005D2AAC08031D5D2A04
:1004A0002B0B5D2A7A30AD000230AF00FA30B0007D
:0E04B0002B21AF0B562A7030AD00E3296300FC
:02400E00723FFF
:00000001FF
;PIC16F877
;CRC=9D9F  CREATED="15-jul-16 12:36"
