:020000040000FA
:1000000001308A00DB290000FF00030E8301A100FC
:100010000A08A0008A010408A2007708A300780853
:10002000A4007908A5007A08A6007B08A70083131E
:1000300083128C308400001C1F280C1832282208E0
:1000400084002308F7002408F8002508F900260892
:10005000FA002708FB0020088A00210E8300FF0E0B
:100060007F0E09008A110A1235282908F73E031865
:100070006A29093E6E29280803194528013A0319FF
:100080005328033A03195D28672883160611831243
:1000900006158316861083128614FE308F00C73033
:1000A0008E00A80A67288316061183120611FB30FA
:1000B0008F001E308E00A80A6728831686108312D0
:1000C0008610D5308F0046308E00A80167286A2937
:1000D000280803197228013A03198028033A0319E2
:1000E0008E289C2883160611831206158316861007
:1000F00083128614FC308F0056308E00A80A9C288C
:100100008316061183120611831686108312861039
:10011000D2308F00D5308E00A8019C28831606119E
:10012000831206118316861083128610D2308F0038
:10013000D5308E00A8019C286A2928080319A72811
:10014000013A0319B528033A0319BF28C9288316B1
:100150000611831206158316861083128614FE304C
:100160008F00C7308E00A80AC92883168610831214
:100170008610FB308F001E308E00A80AC928831617
:10018000061183120611D5308F0046308E00A8016B
:10019000C9286A2983160611831206118316861050
:1001A000831286106A2928080319DD28013A0319E9
:1001B000EB28033A0319F528FF288316061183124A
:1001C00006158316861083128614FE308F00C73002
:1001D0008E00A80AFF288316061183120611FD302F
:1001E0008F0084308E00A801FF28831686108312AA
:1001F0008610D2308F00D5308E00A801FF286A29E2
:10020000280803190A29013A03191829033A03197E
:1002100026293429831606118312061583168610A3
:1002200083128614FE308F00C7308E00A80A34294E
:100230008316061183120611831686108312861008
:10024000D0308F0064308E00A80134298316061147
:10025000831206118316861083128610D0308F0009
:1002600064308E00A80134296A29280803193F291F
:10027000013A03194D29033A03195B2969298316A9
:100280000611831206158316861083128614F93020
:100290008F00E5308E00A80A6929831606118312A3
:1002A00006118316861083128610D5308F004630D3
:1002B0008E00A80169298316061183120611831680
:1002C000861083128610D5308F0046308E00A8012C
:1002D00069296A290C108A110A121F280A148A1027
:1002E0000A1182073B2868289D286A296A29CA289A
:1002F000D3280029352939308400831300080319D5
:100300008E290630F800F701F70B8429F80B8329B2
:100310007B30F700F70B8A29800B812900341030DD
:10032000F8001F08C73978049F000130B9007B210D
:100330001F151F1999291E08B3001830F8001F084F
:10034000C73978049F000130B9007B211F151F19A0
:10035000A7291E08B5008A110A121F2A2830F800A2
:100360001F08C73978049F000130B9007B211F1591
:100370001F19B8291E08B2003030F8001F08C7390D
:1003800078049F000130B9007B211F151F19C62971
:100390001E08B6003830F8001F08C73978049F00DF
:1003A0000130B9007B211F151F19D4291E08B40084
:1003B0008A110A12202A840183131F308305813099
:1003C00083169900A6309800903083129800831607
:1003D0001F149F141F159F118312A8010530A90037
:1003E0005030AA002830AB00AC00AD010230AE00A6
:1003F0000630AF000730B0000830B100B701003060
:100400008316860083121F179F1783169F1383126C
:100410001F1483161F109F101F119F11B5308312D8
:10042000900083168C160C14C03083128B04143089
:10043000B800FA30B9007B21B80B192A8F29AE29F0
:100440002A08320203183B2A370B272A302A2E08A3
:10045000A9000430B800AF30B9007B21B80B2B2ABB
:100460003108A9000230B800FA30B9007B21B80B7E
:10047000342A0130B7002A0834020318572A3708F3
:10048000023C03194C2A2E08A9000430B800AF30F2
:10049000B9007B21B80B472A3008A9000230B80008
:1004A000FA30B9007B21B80B502A0230B7002A0875
:1004B00036020318732A3708023C0319682A2E08EB
:1004C000A9000430B800AF30B9007B21B80B632A13
:1004D0003008A9000230B800FA30B9007B21B80B0F
:1004E0006C2A0230B70033082C020318812A350821
:1004F0002B0203187E2A2D08A900802A3008A900A3
:10050000992A35082B020318882A3108A900992A4C
:100510003708033C0319952A2D08A9000230B800BA
:10052000FA30B9007B21B80B902A0330B7002F08AE
:06053000A9001E2A630071
:02400E00713F00
:00000001FF
;PIC16F877
;CRC=6D49  CREATED="15-jul-16 13:04"
