:020000040000FA
:1000000000308A0065280000FF00030E8301A10074
:100010000A08A0008A010408A2007708A300780853
:10002000A4007908A5007A08A6007B08A70083131E
:1000300083128B1E1D280B193028220884002308E8
:10004000F7002408F8002508F9002608FA00270818
:10005000FB0020088A00210E8300FF0E7F0E09009E
:100060008A110A124E280A108A100A11820748348F
:1000700061342034703461347334613464346F34E7
:10008000203475346E3420347334653467347534F9
:100090006E3464346F340A340D340034A908031DFF
:1000A000552828081E3C03185E28AA08031D5B2853
:1000B0000130AA005C28AA01A901A801A80A031915
:1000C000A90A0B118A110A121D28840183131F30FB
:1000D0008305813083169900A630980090308312F2
:1000E000980083161F149F141F159F118312A801D7
:1000F000A901AA012A08AB0083160108C0390638F5
:100100008100640083128B16C0308B042B082A02F6
:1001100003199928AC012C083320AC0AF7007708A2
:100120000C1E9028990016302C02031D8B282A08DB
:06013000AB00862863000D
:02400E00713F00
:00000001FF
;PIC16F877
;CRC=4522  CREATED="11-jul-16 12:15"
