:020000040000FA
:1000000000308A0069280000FF00030E8301A10070
:100010000A08A0008A010408A2007708A300780853
:10002000A4007908A5007A08A6007B08A70083131E
:1000300083128C308400801E1F288C1A32282208DC
:1000400084002308F7002408F8002508F900260892
:10005000FA002708FB0020088A00210E8300FF0E0B
:100060007F0E09008A110A1253280A108A100A11F9
:1000700082070D340A344C34693473347434653473
:100080006E3420346F346E3420345234533432346E
:10009000333432342034283449346E3474342934BF
:1000A0000D340A340034A8018C1E65288C1E562895
:1000B0001A08A800A8080319652801302807AA0013
:1000C0002A080C1E61289900A8018C128A110A12B4
:1000D0001F28840183131F30830581308316990004
:1000E000A630980090308312980083161F149F1436
:1000F0001F159F1120308312A800C0308B04831677
:100100008C168312A90129083520A90AF70077085F
:100110000C1E8828990019302902031D83288F2876
:0201200063007A
:02400E00713F00
:00000001FF
;PIC16F877
;CRC=0364  CREATED="11-jul-16 09:49"
